{
  "contractName": "CompoundV",
  "abi": [
    {
      "inputs": [
        {
          "internalType": "address",
          "name": "_vComptroller",
          "type": "address"
        },
        {
          "internalType": "address",
          "name": "_vEthAddress",
          "type": "address"
        }
      ],
      "stateMutability": "nonpayable",
      "type": "constructor"
    },
    {
      "inputs": [],
      "name": "vComptroller",
      "outputs": [
        {
          "internalType": "contract VComptrollerInterface",
          "name": "",
          "type": "address"
        }
      ],
      "stateMutability": "view",
      "type": "function"
    },
    {
      "inputs": [],
      "name": "vEth",
      "outputs": [
        {
          "internalType": "contract VEthInterface",
          "name": "",
          "type": "address"
        }
      ],
      "stateMutability": "view",
      "type": "function"
    },
    {
      "inputs": [
        {
          "internalType": "address",
          "name": "vTokenAddress",
          "type": "address"
        }
      ],
      "name": "getvTokenBalance",
      "outputs": [
        {
          "internalType": "uint256",
          "name": "",
          "type": "uint256"
        }
      ],
      "stateMutability": "view",
      "type": "function"
    },
    {
      "inputs": [
        {
          "internalType": "address",
          "name": "vTokenAddress",
          "type": "address"
        }
      ],
      "name": "getUnderlyingBalance",
      "outputs": [
        {
          "internalType": "uint256",
          "name": "",
          "type": "uint256"
        }
      ],
      "stateMutability": "nonpayable",
      "type": "function"
    },
    {
      "inputs": [],
      "name": "getUnderlyingEthBalance",
      "outputs": [
        {
          "internalType": "uint256",
          "name": "",
          "type": "uint256"
        }
      ],
      "stateMutability": "nonpayable",
      "type": "function"
    }
  ],
  "bytecode": "0x608060405234801561001057600080fd5b506040516105173803806105178339818101604052604081101561003357600080fd5b810190808051906020019092919080519060200190929190505050816000806101000a81548173ffffffffffffffffffffffffffffffffffffffff021916908373ffffffffffffffffffffffffffffffffffffffff16021790555080600160006101000a81548173ffffffffffffffffffffffffffffffffffffffff021916908373ffffffffffffffffffffffffffffffffffffffff1602179055505050610437806100e06000396000f3fe608060405234801561001057600080fd5b50600436106100575760003560e01c80631b1175501461005c578063703d795c14610090578063922af262146100ae578063d2c6a5e7146100e2578063f0d23e8f1461013a575b600080fd5b610064610192565b604051808273ffffffffffffffffffffffffffffffffffffffff16815260200191505060405180910390f35b6100986101b6565b6040518082815260200191505060405180910390f35b6100b6610283565b604051808273ffffffffffffffffffffffffffffffffffffffff16815260200191505060405180910390f35b610124600480360360208110156100f857600080fd5b81019080803573ffffffffffffffffffffffffffffffffffffffff1690602001909291905050506102a9565b6040518082815260200191505060405180910390f35b61017c6004803603602081101561015057600080fd5b81019080803573ffffffffffffffffffffffffffffffffffffffff169060200190929190505050610354565b6040518082815260200191505060405180910390f35b60008054906101000a900473ffffffffffffffffffffffffffffffffffffffff1681565b6000600160009054906101000a900473ffffffffffffffffffffffffffffffffffffffff1673ffffffffffffffffffffffffffffffffffffffff16633af9e669306040518263ffffffff1660e01b8152600401808273ffffffffffffffffffffffffffffffffffffffff168152602001915050602060405180830381600087803b15801561024357600080fd5b505af1158015610257573d6000803e3d6000fd5b505050506040513d602081101561026d57600080fd5b8101908080519060200190929190505050905090565b600160009054906101000a900473ffffffffffffffffffffffffffffffffffffffff1681565b60008173ffffffffffffffffffffffffffffffffffffffff166370a08231306040518263ffffffff1660e01b8152600401808273ffffffffffffffffffffffffffffffffffffffff16815260200191505060206040518083038186803b15801561031257600080fd5b505afa158015610326573d6000803e3d6000fd5b505050506040513d602081101561033c57600080fd5b81019080805190602001909291905050509050919050565b60008173ffffffffffffffffffffffffffffffffffffffff16633af9e669306040518263ffffffff1660e01b8152600401808273ffffffffffffffffffffffffffffffffffffffff168152602001915050602060405180830381600087803b1580156103bf57600080fd5b505af11580156103d3573d6000803e3d6000fd5b505050506040513d60208110156103e957600080fd5b8101908080519060200190929190505050905091905056fea2646970667358221220c5d8737ab6c08391d247cfc7f6311d98bdb2d7b7c39d242e46a135d429ebcad764736f6c63430007030033",
  "immutableReferences": {},
  "source": "pragma solidity ^0.7.3;\n\nimport '@openzeppelin/contracts/token/ERC20/IERC20.sol';\nimport './VTokenInterface.sol';\nimport './VEthInterface.sol';\nimport './VComptrollerInterface.sol';\n\ncontract CompoundV {\n  VComptrollerInterface public vComptroller;\n  VEthInterface public vEth;\n\n  constructor(\n    address _vComptroller,\n    address _vEthAddress\n  ) {\n    vComptroller = VComptrollerInterface(_vComptroller);\n    vEth = VEthInterface(_vEthAddress);\n  }\n\n  function supply(address vTokenAddress, uint underlyingAmount) internal {\n    VTokenInterface vToken = VTokenInterface(vTokenAddress);\n    address underlyingAddress = vToken.underlying(); \n    IERC20(underlyingAddress).approve(vTokenAddress, underlyingAmount);\n    uint result = vToken.mint(underlyingAmount);\n    require(\n      result == 0, \n      'vToken#mint() failed. see Compound ErrorReporter.sol for details'\n    );\n  }\n\n  function supplyEth(uint underlyingAmount) internal {\n    vEth.mint{value: underlyingAmount}();\n  }\n\n  function redeem(address vTokenAddress, uint underlyingAmount) internal {\n    VTokenInterface vToken = VTokenInterface(vTokenAddress);\n    uint result = vToken.redeemUnderlying(underlyingAmount);\n    require(\n      result == 0,\n      'vToken#redeemUnderlying() failed. see Compound ErrorReporter.sol for more details'\n    );\n  }\n\n  function redeemEth(uint underlyingAmount) internal {\n    uint result = vEth.redeemUnderlying(underlyingAmount);\n    require(\n      result == 0,\n      'vEth#redeemUnderlying() failed. see Compound ErrorReporter.sol for more details'\n    );\n  }\n\n  function claimCompV() internal {\n    vComptroller.claimCompV(address(this));\n  }\n\n  function getCompVAddress() internal view returns(address) {\n    return vComptroller.getCompVAddress();\n  }\n\n  function getUnderlyingAddress(\n    address vTokenAddress\n  ) \n    internal \n    view \n    returns(address) \n  {\n    return VTokenInterface(vTokenAddress).underlying();\n  }\n\n  function getvTokenBalance(address vTokenAddress) public view returns(uint){\n    return VTokenInterface(vTokenAddress).balanceOf(address(this));\n  }\n\n  function getUnderlyingBalance(address vTokenAddress) public returns(uint){\n    return VTokenInterface(vTokenAddress).balanceOfUnderlying(address(this));\n  }\n\n  function getUnderlyingEthBalance() public returns(uint){\n    return vEth.balanceOfUnderlying(address(this));\n  }\n}",
  "sourcePath": "/Users/victorogbebor/Desktop/Projext/CompoundingWallet/contracts/CompoundV.sol",
  "compiler": {
    "name": "solc",
    "version": "0.7.3+commit.9bfce1f6.Emscripten.clang"
  },
  "schemaVersion": "3.4.1",
  "updatedAt": "2021-06-22T05:59:41.969Z",
  "devdoc": {
    "kind": "dev",
    "methods": {},
    "version": 1
  },
  "userdoc": {
    "kind": "user",
    "methods": {},
    "version": 1
  }
}